:030000000229CC06
:1029CC00E59654027003022A7BC200C201C202784F
:1029DC00017455F608B820FB78017455666002D274
:1029EC000108B820F5780174AAF608B820FB780124
:1029FC0074AA666002D20108B820F578217455F6E5
:102A0C0008B800FB78217455666002D20108B80042
:102A1C00F5782174AAF608B800FB782174AA6660D0
:102A2C0002D20108B800F5E58164076002D2010208
:042A3C002A7B0000F1
:03000300022E8941
:03000B00022E8A38
:03001300022E8B2F
:03001B00022E8C26
:03002300022E5654
:03002B00022E2B77
:03003300022E8614
:012E89003216
:012E8A003215
:012E8B003214
:012E8C003213
:102E5600309804D208C298309906D20AD202C29992
:012E66003239
:102E2B00C0E0C083C082D20C90F004E04401F0D02B
:062E3B0082D083D0E032DA
:032E8600D20D3238
:102DCF00900EFB74AAF0900EFAE064BB600C759342
:102DDF00557F647E001230E680ECE4900EFAF0909E
:042DEF000EFBF022C5
:0D2E6700AB07753E1E7D017F02122AC022BE
:102D6B008F27122E6730050990F004E054FEF08097
:102D7B000690F004740EF0752B03752C0F752D6EE9
:102D8B00752E027B327D30AF27121C8120070E750A
:0E2D9B0093557595A0758701758E5500002221
:102E41007E007B017AF0796A746A2FF9EE34F0FA28
:042E5100122702FF43
:012E5500225A
:102C14007E007AF0796A746A2FF9EE34F0753C011B
:102C2400F53D893EAB3CFA122702FF7AF079102475
:102C340010F9EE34F0753F01F540894174A62FF97F
:102C4400EE3401754201F5438944EDD39400400EFE
:102C5400AB42AA431227024440122748800EAB42DB
:102C6400AA43A94412270254BF122748AB42AA43DD
:102C7400A944122702AB3FAA40A941122748AB3C02
:082C8400AA3DA93E122702FF40
:012C8C002225
:102E1400122E418FC1AF05122E418FC2D2C030C0D5
:072E24000575935580F822AB
:102DA9008D3BAC077D01122C148FC1E41DAF3B1282
:102DB9002C148FC2D2C030C00575935580F8AF046A
:062DC900E4FD122C1422AF
:0823EF008B3B8A3C893D8D3EC9
:1023F70074FFF540F541E4FFEFB53F010FAB3BAA92
:102407003CA93D75F002EFA4F58285F0831227EC15
:10241700FBAAF0C39541EA9540500A8A408B418A4E
:10242700428B43AC070FEFC3953E40CCE4FDEC7005
:1024370058AB3BAA3CA93D9000021227ECFFAEF037
:10244700D39543EE95424015EF9543FFEE9542FE37
:10245700C3EF940CEE940040040D02257590000420
:102467001227ECFFAEF0D39543EE954250030225B9
:1024770075EF9543FFEE9542FEC3EF940CEE940083
:1024870050030225750D022575E53E146C7074E541
:102497003E24FEFFE434FFFEEF25E0FFEE33AB3BC7
:1024A700AA3CA93D8F82F5831227ECFFAEF0D395A6
:1024B70043EE95424015EF9543FFEE9542FEC3EF7D
:1024C700940CEE940040040D022575E53E24FDFFB3
:1024D700E434FFFEEF25E0FFEE338F82F58312270A
:1024E700ECFFAEF0D39543EE95425003022575EF0E
:1024F7009543FFEE9542FEC3EF940CEE9400406EB9
:102507000D806BEC24FFFFE434FFFEEF25E0FFEEC8
:1025170033AB3BAA3CA93D8F82F5831227ECFFAE74
:10252700F0D39543EE95424014EF9543FFEE954265
:10253700FEC3EF940CEE940040030D8031EC2401B0
:10254700FFE433FEEF25E0FFEE338F82F58312279A
:10255700ECFFAEF0D39543EE95424012EF9543FF63
:10256700EE9542FEC3EF940CEE940040010DEDD3BF
:0925770094004003AF04227FFF31
:012580002238
:041C81008F28A905FA
:101C850090016FE07012900178E07004C20180123B
:101C9500900178E014F0800AD201900190E0900163
:101CA50078F0E490016FF090018BE0C39940030256
:101CB5001DC5E4FAEAC395284003021DBE90018BB9
:101CC500E0640A7038EA25E02490F582E43400F5F2
:101CD50083E0FFEA25E02430F582E43400F583EF64
:101CE500F0EA25E02491F582E43400F583E0FFEA8B
:101CF50025E02431F582E43400F583EFF0EA25E0B0
:101D05002490F582E43400F583E0FEEA25E0249191
:101D1500F582E43400F583E07C002400FFEC3EC34B
:101D250013F52FEF13F530EA25E02430F582E4347E
:101D350000F583E0FEEA25E02431F582E43400F580
:101D450083E02400FFEC3EC313FEEF132530F5308E
:101D5500EE352FF52FFFEA25E02430F582E4340037
:101D6500F583EFF0EA25E02431F582E43400F583CC
:101D7500E530F0E914FF90018BE06F7038EA25E05B
:101D85002430F582E43400F583E0FFEA25E02460A1
:101D9500F582E43400F583EFF0EA25E02431F5829D
:101DA500E43400F583E0FFEA25E02461F582E434BC
:101DB50000F583EFF00A021CB990018BE004F022D4
:101DC50090018BE0696003022179FAEAC395284006
:101DD5000302217EEA25E02460F582E43400F583E0
:101DE500E0FEEA25E02461F582E43400F583E07C39
:101DF500002400F532EC3EF531E52B64037077EAFB
:101E050025E02490F582E43400F583E0FEEA25E040
:101E15002491F582E43400F583E02400FDEC3EFCDA
:101E2500C313F52FED13F530EDAE047802CEC313D1
:101E3500CE13D8F92530F530EE352FF52FEA25E00C
:101E45002430F582E43400F583E0FEEA25E0243110
:101E5500F582E43400F583E07C002400FFEC3EFECF
:101E6500EF7802CEC313CE13D8F92530F530EE3511
:101E75002FF52F021F81E52B6402707BEA25E024F4
:101E850090F582E43400F583E0FEEA25E02491F53F
:101E950082E43400F583E07C002400FFEC3EFEEF95
:101EA5007802CEC313CE13D8F9F5308E2FEA25E08C
:101EB5002430F582E43400F583E0FEEA25E02431A0
:101EC500F582E43400F583E07C002400FDEC3EFC63
:101ED500EDAE047802CEC313CE13D8F92530F53014
:101EE500EE352FF52FECC313FEED132530F530EE4F
:101EF500352FF52F021F81E52B6401705AEA25E085
:101F05002490F582E43400F583E0FEEA25E024918F
:101F1500F582E43400F583E07C002400FFEC3EC349
:101F250013F52FEF13F530EA25E02430F582E4347C
:101F350000F583E0FEEA25E02431F582E43400F57E
:101F450083E02400FFEC3EC313FEEF132530F5308C
:101F5500EE352FF52F8025EA25E02490F582E4342F
:101F650000F583E0FEEA25E02491F582E43400F5EE
:101F750083E07C002400F530EC3EF52FE52FFFEAE9
:101F850025E02430F582E43400F583EFF0A930EA4A
:101F950025E02431F582E43400F583E9F0AF2C7EA9
:101FA500002FFDEE352FFCC3ED9532EC95315064D5
:101FB50074202AF582E43401F583E014F074202AB4
:101FC500F582E43401F583E0600302217574202A6B
:101FD500F582E43401F583EBF0EA25E02490F582FF
:101FE500E43400F583E0FDEA25E02460F582E4347D
:101FF50000F583EDF0EA25E02491F582E43400F55F
:1020050083E0FDEA25E02461F582E43400F583ED03
:10201500F0022175785AE67C002532FDEC3531FC5D
:10202500C3ED9530EC952F500890016FE004F0D288
:102035000174202AF582E43401F583EBF030010FB9
:1020450074512AF582E43401F583E4F002217574B4
:10205500202AF582E43401F583EBF0D3E53095329F
:10206500E52F953150030220F5E5322FFFE5313E8E
:10207500FEC3E5309FE52F9E4003022175C3E99518
:1020850032FF74512AF582E43401F583E02FF074B0
:10209500512AF582E43401F583E0FFD3952D5003F1
:1020A500022175E52DFDE49DFD74019400FCC3EF4F
:1020B5009DE49C4003022175E52E2532F532E43579
:1020C50031F531FFEA25E02460F582E43400F5833B
:1020D500EFF0EA25E02461F582E43400F583E5328A
:1020E500F074512AF582E43401F583E4F002217598
:1020F5007E00E530252CFFEE352FFEC3E5329FE54A
:10210500319E506C74512AF582E43401F583E0FF69
:10211500C3E53299FEC3EF9EF0C3E4952DFF74012C
:102125009400FE74512AF582E43401F583E0F9C385
:102135009FE49E503BE9952D4036E532952EF532CC
:10214500E5319400F531FFEA25E02460F582E434B9
:1021550000F583EFF0EA25E02461F582E43400F52B
:1021650083E532F074512AF582E43401F583E4F015
:092175000A021DD0E490018BF078
:01217E00223E
:10217F00AC07ECF47048900DDAEDF0A3EBF0A3741C
:10218F0020F0A3741EF0A3740FF0A3E52AF0A3743C
:10219F000EF0E4A3F0A3F0A3F0A3F0A3F0A3F0A339
:1021AF00F0900E53E0900DE8F0900DDBE0FF900DF6
:1021BF00DAE02FFF900DE8E02FF404A3F022E52AD8
:1021CF0075F002A4FFECC39FE5F06480F87480986B
:1021DF0050030222EDE52A25E0FFC3EC9F900DDAB4
:1021EF00F0E02460F582E43400F583E0900DDBF03D
:1021FF00900DDAE02461F582E43400F583E0900D70
:10220F00DCF0900DDAE02462F582E43400F583E02F
:10221F00900DDDF0900DDAE02463F582E43400F5E3
:10222F0083E0900DDEF0900DDAE02464F582E43463
:10223F0000F583E0900DDFF0900DDAE02465F58274
:10224F00E43400F583E0900DE0F0900DDAE02466C1
:10225F00F582E43400F583E0900DE1F0900DDAE0C3
:10226F002467F582E43400F583E0900DE2F0900DE1
:10227F00DAE02468F582E43400F583E0900DE3F0B2
:10228F00900DDAE02469F582E43400F583E0900DD7
:10229F00E4F0900DDAE0246AF582E43400F583E08F
:1022AF00900DE5F0900DDAE0246BF582E43400F543
:1022BF0083E0900DE6F0900DDAE0246CF582E434C3
:1022CF0000F583E0900DE7F0900DDAE0246DF582D4
:1022DF00E43400F583E0900DE8F0E4A3F022900DD4
:1022EF00DAECF0E02430F582E43400F583E0900D71
:1022FF00DBF0900DDAE02431F582E43400F583E071
:10230F00900DDCF0900DDAE02432F582E43400F524
:10231F0083E0900DDDF0900DDAE02433F582E434A4
:10232F0000F583E0900DDEF0900DDAE02434F582B5
:10233F00E43400F583E0900DDFF0900DDAE0243502
:10234F00F582E43400F583E0900DE0F0900DDAE0D3
:10235F002436F582E43400F583E0900DE1F0900D22
:10236F00DAE02437F582E43400F583E0900DE2F0F3
:10237F00900DDAE02438F582E43400F583E0900D17
:10238F00E3F0900DDAE02439F582E43400F583E0D0
:10239F00900DE4F0900DDAE0243AF582E43400F584
:1023AF0083E0900DE5F0900DDAE0243BF582E43404
:1023BF0000F583E0900DE6F0900DDAE0243CF58215
:1023CF00E43400F583E0900DE7F0900DDAE0243D62
:1023DF00F582E43400F583E0900DE8F0E4A3F022F9
:102CFD0030026A900DDA74F5F09001F9E0FF24309E
:102D0D00F582E43400F583E0900DDBF074312FF59E
:102D1D0082E43400F583E0900DDCF09001F9E0FFE2
:102D2D002460F582E43400F583E0900DDDF07461EC
:102D3D002FF582E43400F583E0900DDEF09001F97B
:102D4D00E0FFC313900DDFF0E4A3F0A3F0A3F0C2F6
:0E2D5D0002C2847F32FE1230E6D2847F012251
:082E7E0020F8FDD2FAC2F8228F
:022AC000AC0761
:102AC200C2F8D2F9C2F9EB14F5E7BD0104D2FA80DB
:102AD20002C2FAEC64027025F53FF540E53FF5E2EB
:102AE200E540F5E1753F00754090E53FF5E6E540CC
:102AF200F5E575EB0175ED0175E902806DEC640396
:102B0200702D753F007540C0E53FF5E2E540F5E107
:102B1200753F007540F0E53FF5E6E540F5E5E4F583
:102B2200D9853EDA75EB0175ED0175E903803BEC61
:102B320064017036753F00754030E53FF5E2E540CF
:102B4200F5E1753F00754060E53FF5E4E540F5E3EA
:102B5200753F007540C0E53FF5E6E540F5E575EBEC
:102B62000175EC0175ED0175E901D2F80020F8FC60
:012B72002240
:08287C008F3B8B3C8A3D893E35
:10288400E53B6401702990000112271B25E0FFE459
:1028940033FE122702FD7C002FF54AEC3EF54990E9
:1028A400000112271B2DF548E433F547022970E592
:1028B4003B65467061AF46FE74FE2FF582EE34FF31
:1028C400F583AB3CAA3DA93E12271BC3940A5018BA
:1028D40074FF2FF582EE34FFF58312271B8E49F522
:1028E4004A8E47F5480229707E0074FF2546F5821A
:1028F400EE34FFF58312271BFF8E49F54A7C0074E2
:10290400FE2546F582EC34FFF58312271B2FF5488C
:10291400EE33F5478056AB3CAA3DA93E853B827514
:10292400830012271B25E0FFE433FE7C0074FF259F
:102934003BF582EC34FFF58312271BFD7A002FF55B
:102944004AEA3EF549EDFF74FE253BF582EC34FF7F
:10295400F583AA3D12271B2FFFEC33FE853B8275BE
:10296400830012271B2FF548EC3EF547E54504FB91
:10297400E54AAE49A803088005C333CE33CED8F95F
:10298400FFAC47AD4812276CAC06AD07E53B24FF0E
:10299400FFE434FFFEEFA803088005C333CE33CE33
:1029A400D8F92DFFEC3EFEC3EF9543FFEE9400FEF5
:1029B400AB40AA41A94275F002E53FA4F58285F037
:0729C40083EE8FF01228439F
:0129CB0022E9
:10127700E4F53D753F75754030F545900DD9E0F5BE
:1012870046F53EC20EC20F759355E4F53B74D7255C
:101297003BF582E4340DF583E0700302140E74D736
:1012A700253BF582E4340DF583E0640370030214F3
:1012B7000E053D74D7253BF582E4340DF5837404A0
:1012C700F0E4F53CE53CC39546400302141BE53BBF
:1012D70025E024C5F582E4340DF583E0FEA3E0FFA5
:1012E700E53C25E024CDF582E4340DF583E0FCA34D
:1012F700E0C39FEE6480F8EC648098402DE53B25C1
:10130700E024C5F582E4340DF583E0FEA3E0FFE5B4
:101317003C25E024CDF582E4340DF583E0FCA3E021
:10132700C39FF548EC9EF547802BE53C25E024CD8F
:10133700F582E4340DF583E0FEA3E0FFE53B25E00D
:1013470024C5F582E4340DF583E0FCA3E0C39FF5E3
:1013570048EC9EF547E53B25E024C9F582E4340DCA
:10136700F583E0FEA3E0FFE53C25E024D1F582E428
:10137700340DF583E0FCA3E0C39FEE6480F8EC64D2
:101387008098402DE53B25E024C9F582E4340DF52E
:1013970083E0FEA3E0FFE53C25E024D1F582E434B9
:1013A7000DF583E0FCA3E0C39FF54AEC9EF5498069
:1013B7002BE53C25E024D1F582E4340DF583E0FEEE
:1013C700A3E0FFE53B25E024C9F582E4340DF5836E
:1013D700E0FCA3E0C39FF54AEC9EF549E548254AA2
:1013E700FFE5473549FEE53B25E025E024B5F582D5
:1013F700E4340DF58375F002E53C122870EEF0A396
:10140700EFF0053C0212CB74D7253BF582E4340D8F
:10141700F583E4F0053BE53B64026003021294E4C4
:10142700F53CE53CC39546501274D5253CF582E45E
:10143700340DF5837401F0053C80E7759355E53D60
:10144700D3940050030217F1E53ED39400500302F2
:1014570017F1E4F53CE53CC39546507B74D5253C34
:10146700F582E4340DF583E064017066F53B74D7CB
:10147700253BF582E4340DF583E06404704DE53BCC
:1014870025E025E024B5F582E4340DF58375F002F7
:10149700E53C122870E0FEA3E0C39540E53F648079
:1014A700F8EE6480985024E53B25E025E024B5F567
:1014B70082E4340DF58375F002E53C122870E0F5FF
:1014C7003FA3E0F540853C41853B42053BE53BB406
:1014D700029C053C02145CC3E54094F4E53F64803C
:1014E700948140030217F1E54125E024CDF582E41C
:1014F700340DF583E0FEA3E0FFE54225E024BDF5CA
:1015070082E4340DF583E0FCA3E0D39FEE6480F81A
:10151700EC648098402AE54225E024BDF582E43456
:101527000DF583E0F54BA3E0F54CE54125E024CD2F
:10153700F582E4340DF583E0F54DA3E0F54E802800
:10154700E54125E024CDF582E4340DF583E0F54B44
:10155700A3E0F54CE54225E024BDF582E4340DF522
:1015670083E0F54DA3E0F54EE54C24F8FFE54B3459
:10157700FFFEC3EF954EE54D6480F8EE648098401A
:1015870006D20ED20F801BE54C24FBFFE54B34FF40
:10159700FED3EF954EE54D6480F8EE6480984002E7
:1015A700D20EE54125E024D1F582E4340DF583E040
:1015B700FEA3E0FFE54225E024C1F582E4340DF502
:1015C70083E0FCA3E0D39FEE6480F8EC648098404E
:1015D7002AE54225E024C1F582E4340DF583E0F5E0
:1015E7004BA3E0F54CE54125E024D1F582E4340D29
:1015F700F583E0F54DA3E0F54E8028E54125E0248D
:10160700D1F582E4340DF583E0F54BA3E0F54CE525
:101617004225E024C1F582E4340DF583E0F54DA3BE
:10162700E0F54EE54C24F8FFE54B34FFFEC3EF959C
:101637004EE54D6480F8EE6480984006D20ED20FD6
:10164700801BE54C24FBFFE54B34FFFED3EF954EA3
:10165700E54D6480F8EE6480984002D20FA20F82B5
:101667000E40030217B7E54125E024CDF582E434A7
:101677000DF583E0FEA3E04E70030217B7E54125A1
:10168700E024D1F582E4340DF583E0FEA3E04E704B
:10169700030217B7E54225E024C5F582E4340DF5CA
:1016A70083E0FEA3E07802CEA2E713CE13D8F8FDBD
:1016B700AC06E54125E024CDF582E4340DF583E061
:1016C700FEA3E07802CEA2E713CE13D8F82DFDEEE5
:1016D7003CFCE54225E024C5F582E4340DF583E0C2
:1016E700A2E713FEA3E0132DFFEC3EFEE54225E043
:1016F70024C5F582E4340DF583EEF0A3EFF0E5425F
:1017070025E024C9F582E4340DF583E0FEA3E078F3
:1017170002CEA2E713CE13D8F8FDAC06E54125E0CB
:1017270024D1F582E4340DF583E0FEA3E07802CE00
:10173700A2E713CE13D8F82DFDEE3CFCE54225E0D9
:1017470024C9F582E4340DF583E0A2E713FEA3E094
:10175700132DFFEC3EFEE54225E024C9F582E43473
:101767000DF583EEF0A3EFF0E54125E024CDF582FA
:10177700E4340DF583E0FEA3E0FFE54225E024BD58
:10178700F582E4340DF583EEF0A3EFF0E54125E0B3
:1017970024D1F582E4340DF583E0FEA3E0FFE542B2
:1017A70025E024C1F582E4340DF583EEF0A3EFF0D4
:1017B70074B32542F582E4340DF583E4F074D7253C
:1017C70042F582E4340DF5837402F074D52541F5B2
:1017D70082E4340DF583E4F0753F75754030153DAF
:1017E700153E0545759355021445E545C3940240DA
:1017F70003021B61E53D94005003021B61E4F53BC6
:1018070074D7253BF582E4340DF583E06404600367
:10181700021B56E545C3940A4003021B5674B325C1
:101827003BF582E4340DF583E0600302192CE53BB8
:1018370025E024C5F582E4340DF583E0FEA3E078C6
:1018470002CEA2E713CE13D8F8FDAC06E53B25E0A0
:1018570024BDF582E4340DF583E0FEA3E07802CEE3
:10186700A2E713CE13D8F82DFDEE3CFCE53B25E0AF
:1018770024C5F582E4340DF583E0A2E713FEA3E067
:10188700132DFFEC3EFEE53B25E024C5F582E4344D
:101897000DF583EEF0A3EFF0E53B25E024C9F582D3
:1018A700E4340DF583E0FEA3E07802CEA2E713CE81
:1018B70013D8F8FDAC06E53B25E024C1F582E434F6
:1018C7000DF583E0FEA3E07802CEA2E713CE13D88E
:1018D700F82DFDEE3CFCE53B25E024C9F582E43418
:1018E7000DF583E0A2E713FEA3E0132DFFEC3EFE08
:1018F700E53B25E024C9F582E4340DF583EEF0A33A
:10190700EFF074D7253BF582E4340DF5837402F0CC
:10191700153D054574B3253BF582E4340DF583E0A9
:1019270004F0021B5674B3253BF582E4340DF583AE
:10193700E0640160030219E6E53B25E024BDF5827A
:10194700E4340DF583E0A2E713FCA3E013FDE53BC8
:1019570025E024C5F582E4340DF583E0A2E713FE04
:10196700A3E0132DFFEE3CFEE53B25E024C5F58201
:10197700E4340DF583EEF0A3EFF0E53B25E024C159
:10198700F582E4340DF583E0A2E713FCA3E013FD31
:10199700E53B25E024C9F582E4340DF583E0A2E7B1
:1019A70013FEA3E0132DFFEE3CFEE53B25E024C923
:1019B700F582E4340DF583EEF0A3EFF074D7253B01
:1019C700F582E4340DF5837402F0153D054574B3D3
:1019D700253BF582E4340DF583E004F0021B5674D1
:1019E700B3253BF582E4340DF583E064026003021E
:1019F7001AEFE53B25E024C5F582E4340DF583E0D5
:101A0700FEA3E07802CEA2E713CE13D8F8FDAC060A
:101A1700E53B25E024BDF582E4340DF583E0FEA324
:101A2700E07802CEA2E713CE13D8F82DFDEE3CFCEA
:101A3700E53B25E024BDF582E4340DF583E0A2E71C
:101A470013FEA3E0132DFFEC3EFEE53B25E024C586
:101A5700F582E4340DF583EEF0A3EFF0E53B25E0E6
:101A670024C9F582E4340DF583E0FEA3E07802CEC5
:101A7700A2E713CE13D8F8FDAC06E53B25E024C159
:101A8700F582E4340DF583E0FEA3E07802CEA2E709
:101A970013CE13D8F82DFDEE3CFCE53B25E024C121
:101AA700F582E4340DF583E0A2E713FEA3E0132DDE
:101AB700FFEC3EFEE53B25E024C9F582E4340DF555
:101AC70083EEF0A3EFF074D7253BF582E4340DF5F0
:101AD700837402F0153D054574B3253BF582E43464
:101AE7000DF583E004F08067E53B25E024BDF58232
:101AF700E4340DF583E0FEA3E0FFE53B25E024C5D4
:101B0700F582E4340DF583EEF0A3EFF0E53B25E035
:101B170024C1F582E4340DF583E0FEA3E0FFE53B45
:101B270025E024C9F582E4340DF583EEF0A3EFF048
:101B370074D7253BF582E4340DF5837403F0153D26
:101B4700054574B3253BF582E4340DF583E4F005D0
:101B57003BE53B64026003021807E545C394024076
:101B670003021C7DE53E94005003021C7DE4F53C16
:101B7700E53CC395464003021C7D74D5253CF582A0
:101B8700E4340DF583E064016003021C78F53B74CF
:101B9700D7253BF582E4340DF583E06003021C6D25
:101BA700E545C3940A4003021C6DE53C25E024CDBE
:101BB700F582E4340DF583E0FEA3E0FFE53B25E085
:101BC70024C5F582E4340DF583EEF0A3EFF0E53C90
:101BD70025E024D1F582E4340DF583E0FEA3E0FF90
:101BE700E53B25E024C9F582E4340DF583EEF0A347
:101BF700EFF0E53C25E024CDF582E4340DF583E0F4
:101C0700FEA3E0FFE53B25E024BDF582E4340DF5B6
:101C170083EEF0A3EFF0E53C25E024D1F582E43430
:101C27000DF583E0FEA3E0FFE53B25E024C1F58247
:101C3700E4340DF583EEF0A3EFF074D7253BF5827E
:101C4700E4340DF5837401F074D5253CF582E43452
:101C57000DF583E4F0054574B3253BF582E4340DB7
:101C6700F583E4F0800B053BE53B64026003021B50
:091C770096053C021B777593559C
:011C80002241
:10258100E49001E8F0F53B74D7253BF582E4340D86
:10259100F583E0700302269C75430175440175457E
:1025A1007FE53B25E024C5F582E4340DF583E0F5B4
:1025B10046A3E0F547E53B25E024C9F582E4340D67
:1025C100F583E0F548A3E0F5497B017A01797B12B7
:1025D1002C8DE53B04FF33333354F8FF74D7253B8F
:1025E100F582E4340DF583E04FFF9001E8E0FD75DD
:1025F100F006A424DAF582E4340DF583EFF09001BE
:102601007BE0FAA3E0FBEAC4F854F0C868EBC454D9
:102611000F48FFED75F006A424DBF582E4340DF5D7
:1026210083EFF090017FE0C4F854F0C868A3E0C4E0
:10263100540F48FF9001E8E0FD75F006A424DCF595
:1026410082E4340DF583EFF0EBC4F8540FC868FF52
:10265100EAC454F048EF54F0FF900180E0540F4F6A
:10266100FFED75F006A424DDF582E4340DF583EF6A
:10267100F09001E8E0FF75F006A424DEF582E43471
:102681000DF583E4F0EF75F006A424DFF582E43460
:102691000DF583E4F09001E8E004F0053BE53BC370
:1026A100940250030225889001E8E0F53BE53BC325
:1026B1009402504CE53B25E025E024DAF582E43430
:1026C1000DF58374FFF0E53B25E025E024DBF58281
:1026D100E4340DF58374FFF0E53B25E025E024DCCF
:1026E100F582E4340DF58374FFF0E53B25E025E048
:1026F10024DDF582E4340DF58374FFF0053B80ADF4
:0127010022B5
:092E7400420108000041010A03BB
:10003600E4F533F534F532D21CC21E753E1E7B182C
:100046007D017F01122AC0E49004A3F09004A3E08E
:10005600FFC3941840030201D090F001E0FEEFC305
:100066009E40030201069004A3E0FD25E024C0F5AE
:1000760082E43400F583E0FEED25E024C1F582E458
:100086003400F583E07C002400F528EC3EF527C318
:1000960094804005E4F527F528C3E52894FAE5277A
:1000A6009400502C9004A3E024AAF582E43404F5CD
:1000B60083E528F0D3941EE5279400400405338099
:1000C6001FD3E528940FE5279400401405348010CB
:1000D6009004A3E024AAF582E43404F58374FAF0CC
:1000E60090F001E014FF9004A3E0FE6F60030201AC
:1000F600C774AB2EF582E43404F583E4F00201C73D
:100106009004A3E0FD25E024C0F582E43400F583E5
:10011600E0FEED25E024C1F582E43400F583E07CC1
:10012600002400F528EC3EF527C394804005E4F54D
:1001360027F528C3E52894FAE5279400503990F06E
:1001460001E0FD9004A3E0C39DFDE49400FC74B4BB
:100156002DF58274043CF583E528F0D3941EE5273B
:10016600940040040533802CD3E528940FE52794AA
:100176000040210534801D90F001E0FF9004A3E0CB
:10018600C39FFFE49400FE74AA2FF58274043EF523
:100196008374FAF090F001E0FF90F002E02F14FF74
:1001A6009004A3E0FEB5071990F001E0FDEEC39DB3
:1001B600FFE49400FE74B52FF58274043EF583E4E3
:1001C600F09004A3E004F0020052E49004A3F0903F
:1001D60004A3E0FFC39402502AEF25E02439F582F8
:1001E600E43401F58374FFF0A3F0EF25E02445F530
:1001F60082E43401F58374FFF0A3F09004A3E004D5
:10020600F080CCE49004A3F09004A5F0A3F0900451
:10021600A3F09004A3E0FFC394095033EF25E02434
:10022600C0F582E43400F583E4F074AA2FF582E485
:100236003404F583E0FF9004A3E025E024C1F582B1
:10024600E43400F583EFF09004A3E004F080C37576
:100256003E1E7B097D017F03122AC09004A5E5DBC3
:10026600F09004C4E5DBF0E49004A4F09004C4E04C
:10027600D39400403D9004A4E0FD24F0F582E434DC
:1002860000F583E0049004A3F0ED7008E014900EEE
:10029600DDF080109004A4E0B401099004A3E014FA
:1002A600900EDCF09004C4E014F09004A4E004F096
:1002B60080BA9004A4E06402600302034E900EDD4F
:1002C600E0FF900EDCE0C39F6401707CE024AAF599
:1002D60082E43404F583E0FF900EDDE024AAF58283
:1002E600E43404F583E0D39F402C900EDDE024AB8C
:1002F600F582E43404F583E0FF900EDDE024AAF5F0
:1003060082E43404F583E0C39FC39410503A90040A
:10031600A57401F08032900EDCE024A9F582E43465
:1003260004F583E0FF900EDCE024AAF582E43404B1
:10033600F583E0C39FC39410500E9004A57401F09A
:10034600900EDCE0900EDDF0E49004A3F09004A3A0
:10035600E0FFC3940F5033EF25E024C0F582E43468
:1003660000F583E4F074B42FF582E43404F583E0F9
:10037600FF9004A3E025E024C1F582E43400F58370
:10038600EFF09004A3E004F080C3753E1E7B0F7D62
:10039600017F03122AC09004A6E5DBF09004C4E5B1
:1003A600DBF0E49004A4F09004C4E0D39400403D54
:1003B6009004A4E0FD24F0F582E43400F583E00423
:1003C6009004A3F0ED7008E014900EDBF08010901E
:1003D60004A4E0B401099004A3E014900EDAF090AE
:1003E60004C4E014F09004A4E004F080BA9004A4DD
:1003F600E064026003020489900EDBE0FF900EDAEF
:10040600E0C39F6401707CE024B4F582E43404F513
:1004160083E0FF900EDBE024B4F582E43404F58338
:10042600E0D39F402C900EDBE024B5F582E4340443
:10043600F583E0FF900EDBE024B4F582E43404F5A6
:1004460083E0C39FC39410503A9004A67401F080D1
:1004560032900EDAE024B3F582E43404F583E0FF4B
:10046600900EDAE024B4F582E43404F583E0C39F09
:10047600C39410500E9004A67401F0900EDAE0902A
:100486000EDBF0C2109004A5E0FF7008A3E0700434
:10049600F5378046EFB4010C9004A6E0B40105756B
:1004A600370180369004A5E0B4010AA3E0B4020542
:1004B60075370280259004A5E0FFB4020AA3E0B4D4
:1004C60001057537038013EFB4020C9004A6E0B45F
:1004D60002057537048003753705C21DE5376405C7
:1004E600600B90016BE0B5370BD21D8007C21DD2A1
:1004F6001E753A019004A5E06401600302064CA350
:10050600E06401600302064C201D0302064C9001C4
:1005160008F0A37403F0A3F0C206C20990F00474B5
:100526000CF090F001E0FF900EDBE02FFF900EDD67
:10053600E0FD122E14900EFCE0FE900EFDE0FDEEA6
:10054600F50EEDF50F90F001E0FF900EDBE08FF079
:10055600A4FF900EDDE07C002FFFEC35F0FEEF25CA
:10056600E0F509EE33F508FE74002509F5827402FC
:100576003EF583E0FE74012509F58274023508F51F
:1005860083E0FDEEF511EDF512FFC3E50F9FF50AC9
:10059600E4F50BF50CF50D75935520A4FA740E25AC
:1005A60009F58274033508F583E4F0E50AFF740F54
:1005B6002509F58274033508F583EFF090F004748D
:1005C6000EF0900EDDE004FFE4F53F754001754145
:1005D6000175423975432075440875450475460909
:1005E6007B017A0479AA12287C900EDBE004FFE4F2
:1005F600F53F7540017541017542457543207544C7
:100606000875450475460F7B017A0479B412287C77
:10061600900139E0FFA3E0900DCDCFF0A3EFF0906D
:100626000145E0FFA3E0900DD1CFF0A3EFF0E490F9
:100636000DCFF0A3F0900DD3F0A3F0900DD904F0F8
:10064600E4F5100212179004A5E0640160030209A4
:1006560049A3E064026003020949201D0302094917
:10066600900108F0A37403F0A3F0C209E510640238
:10067600700302083C90F004740CF090F00C74784F
:10068600F0E490F00DF090F001E0FF900EDDE0FD5B
:10069600122DA9E49004A3F090F002E0FF9004A3C9
:1006A600E0FEC39F40030207DF90F001E0FFEE2F5C
:1006B600FF900EDDE0FD122DA9900EFCE0FE900EDF
:1006C600FDE0FDEEF50EEDF50F90F001E0FF900474
:1006D600A3E0FD8FF0A4FF900EDDE07A002FFFEA85
:1006E60035F0FEEF25E0F509EE33F508FE7400253A
:1006F60009F58274023EF583E0FE74012509F58250
:1007060074023508F583E0FBEEF511EBF51290F077
:1007160001E0FFED8FF0A4FF900EDDE02F903F1E6D
:100726009330E73590F001E0FF9004A3E0FE8FF0F0
:10073600A4FF900EDDE02F903F1E9354807C002591
:100746000FFDEC350EFCEE25E024CFF582E43404F3
:10075600F583ECF0A3EDF0803390F001E0FF900418
:10076600A3E0FE8FF0A4FF900EDDE02F903F1E93D6
:10077600FDC3E50F9DFDE50E9400FCEE25E024CFBC
:10078600F582E43404F583ECF0A3EDF09004A3E0E5
:10079600FD25E024CFF582E43404F583E0FF740EF2
:1007A6002509F58274033508F583EFF0ED25E0247D
:1007B600CFF582E43404F583E0A3E0FF740F250946
:1007C600F58274033508F583EFF075935520A4FA86
:1007D6009004A3E004F002069E7B017A0479CF9090
:1007E600F002E0FD753FFF1223EF8F3885380A7B54
:1007F600017A0479CF90F002E0FD85383F1223EFAD
:100806008F3985390BE4F50CF50DE538F46027E5ED
:1008160039F46022E538D39539400EE5389539D359
:1008260094014012751002800DC3E5399538D394B2
:10083600014003751002E5106402600620060302FB
:100846000928900EDDE004FFE4F53F75400175418F
:100856000175423975432075440875450475460986
:100866007B017A0479AA12287C900EDDE004FF75DC
:100876003F01754001754101754239754320754444
:10088600087545047546097B017A0479AA12287C05
:10089600900EDBE004FFE4F53F75400175410175FC
:1008A600424575432075440875450475460F7B011E
:1008B6007A0479B412287C900EDAE004FF753F01C1
:1008C60075400175410175424575432075440875AB
:1008D600450475460F7B017A0479B412287C900191
:1008E60039E0FFA3E0900DCDCFF0A3EFF0900145E6
:1008F600E0FFA3E0900DD1CFF0A3EFF090013BE035
:10090600FFA3E0900DCFCFF0A3EFF0900147E0FFFB
:10091600A3E0900DD3CFF0A3EFF0900DD97402F0C1
:100926008007C21DD21E753A0290F00C745CF0E48A
:1009360090F00DF090F004740EF090F003740AF04D
:100946000212179004A5E064026003020D7EA3E084
:1009560064016003020D7E201D03020D7E900108D6
:10096600F0A37403F0A3F0C20665107003020C71C5
:1009760090F004740CF090F00C7478F0E490F00DA4
:10098600F090F001E0FF900EDDE0FD122DA9E4905D
:1009960004A3F090F002E0FF9004A3E0FEC39F40A2
:1009A60003020AD490F001E0FFEE2FFF900EDDE087
:1009B600FD122DA9900EFCE0FE900EFDE0FDEEF579
:1009C6000EEDF50F90F001E0FF9004A3E0FD8FF02F
:1009D600A4FF900EDDE07A002FFFEA35F0FEEF254A
:1009E600E0F509EE33F508FE74002509F582740278
:1009F6003EF583E0FE74012509F58274023508F59B
:100A060083E0FBEEF511EBF51290F001E0FFED8FC0
:100A1600F0A4FF900EDDE02F903F1E9330E7359057
:100A2600F001E0FF9004A3E0FE8FF0A4FF900EDD3E
:100A3600E02F903F1E9354807C00250FFDEC350E71
:100A4600FCEE25E024CFF582E43404F583ECF0A334
:100A5600EDF0803390F001E0FF9004A3E0FE8FF00C
:100A6600A4FF900EDDE02F903F1E93FDC3E50F9D82
:100A7600FDE50E9400FCEE25E024CFF582E4340477
:100A8600F583ECF0A3EDF09004A3E0FD25E024CF80
:100A9600F582E43404F583E0FF740E2509F58274CB
:100AA600033508F583EFF0ED25E024CFF582E43435
:100AB60004F583E0A3E0FF740F2509F5827403357E
:100AC60008F583EFF09004A3E004F00209997B0196
:100AD6007A0479CF90F002E0FD753FFF1223EF8F85
:100AE6003885380AE49004A3F090F002E0FF900401
:100AF600A3E0FEC39F4003020C2A90F001E0FFEE44
:100B06002FFF900EDCE0FD122DA9900EFCE0FE906A
:100B16000EFDE0FDEEF50EEDF50F90F001E0FF9015
:100B260004A3E0FD8FF0A4FF900EDCE07A002FFF17
:100B3600EA35F0FEEF25E0F509EE33F508FE740020
:100B46002509F58274023EF583E0FE74012509F558
:100B56008274023508F583E0FBEEF511EBF5129091
:100B6600F001E0FFED8FF0A4FF900EDCE02F903F48
:100B76001E9330E73590F001E0FF9004A3E0FE8F6E
:100B8600F0A4FF900EDCE02F903F1E9354807C0073
:100B9600250FFDEC350EFCEE25E024CFF582E4347E
:100BA60004F583ECF0A3EDF0803390F001E0FF90C4
:100BB60004A3E0FE8FF0A4FF900EDCE02F903F1E12
:100BC60093FDC3E50F9DFDE50E9400FCEE25E024A4
:100BD600CFF582E43404F583ECF0A3EDF09004A3A2
:100BE600E0FD25E024CFF582E43404F583E0FF74CC
:100BF6000E2509F58274033508F583EFF0ED25E03F
:100C060024CFF582E43404F583E0A3E0FF740F25D6
:100C160009F58274033508F583EFF09004A3E00428
:100C2600F0020AEF7B017A0479CF90F002E0FD75BD
:100C36003FFF1223EF8F3985390BE4F50CF50DE5EF
:100C460038F46027E539F46022E538D39539400E4B
:100C5600E5389539D394015012751003800DC3E51C
:100C6600399538D394015003751003E51064036079
:100C760006200903020D5D900EDDE004FFE4F53F5A
:100C860075400175410175423975432075440875F3
:100C960045047546097B017A0479AA12287C900ED0
:100CA600DCE004FF753F017540017541017542396D
:100CB6007543207544087545047546097B017A0419
:100CC60079AA12287C900EDBE004FFE4F53F75401C
:100CD6000175410175424575432075440875450403
:100CE60075460F7B017A0479B412287C900EDBE0FE
:100CF60004FF753F01754001754101754245754315
:100D06002075440875450475460F7B017A0479B44D
:100D160012287C900139E0FFA3E0900DCDCFF0A31F
:100D2600EFF0900145E0FFA3E0900DD1CFF0A3EFE7
:100D3600F090013BE0FFA3E0900DCFCFF0A3EFF0E2
:100D4600900147E0FFA3E0900DD3CFF0A3EFF09022
:100D56000DD97402F08007C21DD21E753A0390F0B9
:100D66000C745CF0E490F00DF090F004740EF090CA
:100D7600F003740AF00212179004A5E064026003FF
:100D8600021171A3E064026003021171201D0302C7
:100D96001171900EDDE0FF900EDCE0C39FFFBF02F5
:100DA60004D2068002C206900EDBE0FF900EDAE067
:100DB600C39FFFBF0204D2098002C209900DD974F5
:100DC60002F0E490F003F090F001E0FF900EDBE01B
:100DD6002FFF900EDDE0FD122E14900EFCE0900E1B
:100DE600E5F0900EFDE0900EE4F090F001E0FF904B
:100DF6000EDBE02FFF900EDCE0FD122E14900EFCB1
:100E0600E0900EE3F0900EFDE0900EE2F090F0011F
:100E1600E0FF900EDAE02FFF900EDDE0FD122E14BB
:100E2600900EFCE0900EE1F0900EFDE0900EE0F0EA
:100E360090F001E0FF900EDAE02FFF900EDCE0FD6F
:100E4600122E14900EFCE0900EDFF0900EFDE09056
:100E56000EDEF0900EE5E0FE900EE4E07C0024004D
:100E6600FFEC3E9004C5F0A3EFF0900EE3E0FE9099
:100E76000EE2E02400FFEC3E9004C7F0A3EFF090F2
:100E86000EE1E0FE900EE0E02400FFEC3E9004C987
:100E9600F0A3EFF0900EDFE0FE900EDEE02400FF00
:100EA600EC3E9004CBF0A3EFF09004C7E0FEA3E085
:100EB600FFC39004CCE09FFF9004CBE09EFE90041D
:100EC600C9E0FCA3E0FDC39004C6E09DFD9004C507
:100ED600E09CCD2FFFED3EFED3EF9400EE648094B0
:100EE600805003021009E4900108F0A3F0A3E0602B
:100EF60034D3900109E09400900108E06480948066
:100F0600400EA3E024FFF0900108E034FFF0800DCE
:100F1600E490010AF0900108F0A37403F0C21D7575
:100F26003A04021168751004900EDDE004FFE4F542
:100F36003F75400175410175423975432075440876
:100F46007545047546097B017A0479AA12287C90B6
:100F56000EDCE004FF753F017540017541017542E5
:100F6600397543207544087545047546097B017A31
:100F76000479AA12287C900EDBE004FFE4F53F75A5
:100F86004001754101754245754320754408754514
:100F96000475460F7B017A0479B412287C900EDA28
:100FA600E004FF753F0175400175410175424575C5
:100FB600432075440875450475460F7B017A04790C
:100FC600B412287C900139E0FFA3E0900DCDCFF05C
:100FD600A3EFF0900145E0FFA3E0900DD1CFF0A381
:100FE600EFF090013BE0FFA3E0900DCFCFF0A3EF31
:100FF600F0900147E0FFA3E0900DD3CFF0A3EFF010
:101006000211689004C7E0FEA3E0FFC39004CCE0A1
:101016009FFF9004CBE09EFE9004C9E0FCA3E0FD98
:10102600C39004C6E09DFD9004C5E09CCD2FED3E27
:10103600C364809480400302115FE4900108F0A32A
:10104600F0A3E064016035900109E0940090010886
:10105600E064809480400EA3E024FFF0900108E055
:1010660034FFF0800F90010A7401F0900108E4F05B
:10107600A37403F0C21D753A050211687510049039
:101086000EDDE004FFE4F53F754001754101754250
:10109600397543207544087545047546097B017A00
:1010A6000479AA12287C900EDCE004FF753F0175D6
:1010B60040017541017542397543207544087545EF
:1010C600047546097B017A0479AA12287C900EDA07
:1010D600E004FFE4F53F7540017541017542457531
:1010E600432075440875450475460F7B017A0479DB
:1010F600B412287C900EDBE004FF753F01754001B9
:10110600754101754245754320754408754504755A
:10111600460F7B017A0479B412287C900139E0FFEE
:10112600A3E0900DCDCFF0A3EFF0900145E0FFA333
:10113600E0900DD1CFF0A3EFF090013BE0FFA3E0EC
:10114600900DCFCFF0A3EFF0900147E0FFA3E09022
:101156000DD3CFF0A3EFF08009C21D753A06C20683
:10116600C20990F003740AF00212179004A5E06019
:10117600030211F9A3E0707B301D78900108F0A3FB
:101186007403F0A3F0E4900EDDF0900EDCF0900E08
:10119600DBF0900EDAF0900EE5F0900EE4F0900E93
:1011A600E3F0900EE2F0900EE1F0900EE0F0900E7B
:1011B600DFF0900EDEF0F50AF50BF50CF50DF510E7
:1011C600FFFE7E027F0E90030EE4F0A3DFFCDEFA44
:1011D6007E017F0EE4900DCDF0A3F0900DD1F0A32B
:1011E600F0900DCFF0A3F0900DD3F0A3F0900DD9B1
:1011F600F0801E900108E4F0A37403F0A3F07510CC
:101206000FE4F50AF50BF50CF50DC21DD21E753A65
:1012160007301D1A1212771225819001E8E0D39447
:1012260000400BC2847F0A7E001230E6D284301E54
:10123600259004A5E0900DDEF09004A6E0900DDF69
:10124600F0900DE4E53AF0A374EEF0C2847F0A7ED6
:10125600001230E6D28490016DE0A3F090016CE0BC
:10126600A3F090016BE0A3F090016BE537F0AF328D
:011276002255
:102C8D00AE46AF477C007D1E12275AEEC4F854F0B5
:102C9D00C868FEEFC4540F48FFEE8FF012282412BF
:102CAD0027C1C394E0E5F094014008740175F0DF8D
:102CBD00122824AE48AF497C007D3912275AEF788F
:102CCD0005CEC313CE13D8F9FFAB43AA44A945EEE5
:102CDD008FF0122824AB43AA44A9451227C1C394EF
:102CED0020E5F094034008740375F01F1228242288
:1030000075816C12314B43A001D2AFD2AE7593558E
:10301000E4F524300B04C20B8029300C26C20C7F4F
:1030200018122D6B90018BE0B43018300405122C6F
:10303000FD801020070D300505122DCF80051200F0
:10304000368F24209FC730086DC208C207C2049083
:103050000DDAE0648F7038900DDDE0FF900DDCE05C
:103060002FFF900DDEE02F64A970A2900DDBE090A1
:1030700001F9F0E0FF90F001E0FDA3E0FB752A18F4
:1030800012217F9001F9E0240EF0D20702300D905A
:103090000DDAE0B49F0BA3E09001F9F0D204023006
:1030A0000D900EF9E064CF600302300DD205F0C23E
:1030B00007C20402300D200A0302300DD284C20A76
:1030C000D20220070302300D9001F9E0FF90F001D9
:1030D000E0FDA3E0FB752A1812217F9001F9E0249E
:0530E0000EF002300DAE
:0130E50022C8
:0F30E600EF1F70011ED3EF9400EE940050F22202
:10314B00E59620E447E59630E31F900175E4F0A384
:10315B00740AF09001747481F0900DE6F090017791
:10316B00749AF0900DE7F08023E59620E71EE59624
:10317B0020E619E59620E014E59630E10F12319B1D
:0F318B0012328912327D1230F5122E7EE4F59643
:01319A002212
:10319B00E4F599759355C20BC20CC20DC208C20A55
:1031AB00900EFAF0900EFBF0C207C205C204F5A810
:1031BB00D2029001757405F0A374DCF0E4900DD984
:1031CB00F0900DD7F0A3F09001E8F0758A0D758B98
:1031DB00DAFF7F78900DDAE4F0A3DFFC122DF39089
:1031EB000E53E0900EE7F0E49001E7F090018BF0C6
:1031FB00D28474FF90013DF0A3F0900149F0A3F04D
:10320B0090013FF0A3F090014BF0A3F0E490013854
:10321B00F09001F1F0A3F09001F5F0A3F09001F321
:10322B00F0A3F09001F7F0A3F074FF900187F0A3E7
:10323B00F0900189F0A3F09001A2F0A3F09001A40B
:10324B00F0A3F0E49001FBF09001FAF0C21075943A
:10325B000375935575FB03F5A9F5AAF5ABF5ACF51D
:10326B00ADF5AEF5AFF5B190019074C8F0785A7624
:01327B001E34
:01327C00222F
:0632890075849CD2A9220D
:0C327D0043A001900E5FE0F589D2AC2266
:1030F50090F0017409F090F002740FF0122B7390A8
:10310500F004740EF090F0067435F090F007742B0F
:10311500F090F0087448F0E490F009F090F00A742B
:103125002BF090F00BF090F00C745CF0E490F00D47
:10313500F090F003740AF090F0A67414F0D2AD90FC
:05314500F004740EF01F
:01314A002262
:103C00000003090F01E0032020200200002500002E
:103C10000000001E1E030F0F6E0230640002000041
:103C200004040202C832000000000000000000008E
:103C30000000000000000000352B00482B2B005C2A
:103C40003C3C00783C3C0078321E301E0A0E0000DE
:103C50000000000000000000000000000000000064
:103C60000000000000000000000000000000000054
:103C70000000000000000000000000000000000044
:103C80000000000000000000000000000000000034
:103C90000000000000000000000000000000000024
:103CA0000000000000000000000000000000000014
:103CB0000000000000000000000000000000000004
:103CC00000000000000000000000000000000000F4
:103CD00000000000000000000000000000000000E4
:103CE00000000000000000000000000000000000D4
:103CF00000000000000000000000000000000000C4
:103D00002020222221212121030303030303030393
:103D10000303032105050505050505030303030347
:103D20000303030303030303030303030303030363
:103D3000030303030303030303030303000000005F
:103D40000000000000000000000000000000000073
:103D50000000000000000000000000000000000063
:103D60000000000000000000000000000000000053
:103D70000000000000000000000000000000000043
:103D80000000000000000000000000000000000033
:103D90000000000000000000000000000000000023
:103DA0000000000000000000000000000000000013
:103DB0000000000000000000000000000000000003
:103DC00000000000000000000000000000000000F3
:103DD00000000000000000000000000000000000E3
:103DE00000000000000000000000000000000000D3
:103DF00000000000000000000000000000000000C3
:103E00001307060504030201002D2C2B2A2928275D
:103E10001B1A1918171615140506070838373635F2
:103E200034333231302F2E2D2C2B2A2928272625CA
:103E300024232221201F1E1D1C1B1A190000000014
:103E40000000000000000000000000000000000072
:103E50000000000000000000000000000000000062
:103E60000000000000000000000000000000000052
:103E70000000000000000000000000000000000042
:103E80000000000000000000000000000000000032
:103E90000000000000000000000000000000000022
:103EA0000000000000000000000000000000000012
:103EB0000000000000000000000000000000000002
:103EC00000000000000000000000000000000000F2
:103ED00000000000000000000000000000000000E2
:103EE00000000000000000000000000000000000D2
:103EF00000000000000000000000000000000000C2
:103F0000321E301E28321A1A1A1A1A1A1A1A1A1AB5
:103F10001A1A1A1A1A1A1A1A1A1A1A1A1A1A000035
:103F20000000000000000000000000000000000091
:103F30000000000000000000000000000000000081
:103F40000000000000000000000000000000000071
:103F50000000000000000000000000000000000061
:103F60000000000000000000000000000000000051
:103F70000000000000000000000000000000000041
:103F80000000000000000000000000000000000031
:103F90000000000A00000000000000005A000000BD
:053FA000000000000A12
:102DF300E4FFEF903C0093FE74522FF582E4340E0F
:102E0300F583EEF00FBF88EA90F000E0900E52F0E9
:012E1300229C
:102B73007AF079107530017531F0753210753901BD
:102B8300753A01753BA67AF0796A7533017534F0AD
:102B930075356A7AF0794C7536017537F075384CAE
:102BA300E4FFEF903D0093AB30AA31A932122748DE
:102BB300EF903D0093AB39AA3AA93B122748EF9017
:102BC3003E0093AB33AA34A935122748740125324A
:102BD300F532E43531F53174012535F535E4353415
:102BE300F5347401253BF53BE4353AF53A0FBF3C28
:102BF300B1E4FFEF903F0093AB36AA37A938122711
:102C03004874012538F538E43537F5370FBF1EE32F
:012C1300229E
:102A4000023000E493A3F8E493A34003F68001F27C
:102A500008DFF48029E493A3F85407240CC8C33397
:102A6000C4540F4420C8834004F456800146F6DF66
:102A7000E4800B0102040810204080902E74E47E54
:102A8000019360BCA3FF543F30E509541FFEE4935B
:102A9000A360010ECF54C025E060A840B8E493A322
:102AA000FAE493A3F8E493A3C8C582C8CAC583CA4D
:102AB000F0A3C8C582C8CAC583CADFE9DEE780BE05
:012E7D000054
:10270200BB010689828A83E0225002E722BBFE02D5
:09271200E32289828A83E4932208
:10271B00BB010CE58229F582E5833AF583E0225073
:10272B0006E92582F8E622BBFE06E92582F8E222BD
:0D273B00E58229F582E5833AF583E49322D7
:10274800BB010689828A83F0225002F722BBFE0170
:02275800F3226A
:10275A00EF8DF0A4A8F0CF8CF0A428CE8DF0A42E93
:02276A00FE224D
:10276C00BC000BBE0029EF8DF084FFADF022E4CC51
:10277C00F875F008EF2FFFEE33FEEC33FCEE9DEC1A
:10278C00984005FCEE9DFE0FD5F0E9E4CEFD22ED60
:10279C00F8F5F0EE8420D21CFEADF075F008EF2FAA
:1027AC00FFED33FD4007985006D5F0F222C398FD9B
:0527BC000FD5F0EA2238
:1027C100BB010A89828A83E0F5F0A3E022500687E3
:1027D100F009E71922BBFE07E3F5F009E3192289A5
:0B27E100828A83E493F5F074019322D8
:1027EC00BB0110E58229F582E5833AF583E0F5F02B
:1027FC00A3E0225009E92582F886F008E622BBFE08
:10280C000AE92582F8E2F5F008E222E5832AF5834D
:08281C00E993F5F0A3E9932212
:10282400BB010A89828A83F0E5F0A3F0225006F7FF
:0F28340009A7F01922BBFE06F3E5F009F31922FC
:10284300F8BB0111E58229F582E5833AF583E8F0C7
:10285300E5F0A3F0225009E92582C8F608A6F02284
:0D286300BBFE09E92582C8F2E5F008F2226B
:0C287000A42582F582E5F03583F5832273
:00000001FF
